:020000040800F2
:1000000000000120BD1F00080D2000080D20000881
:100010000D2000080D2000080D2000080000000041
:100020000000000000000000000000000D2000089B
:100030000D200008000000000D200008F10E00084F
:10004000000000000D2000080D2000080D20000811
:100050000D2000080D2000080D2000080D200008CC
:100060000D2000080D2000080D2000080D200008BC
:100070000D2000080D2000080D2000080D200008AC
:100080000D2000080D2000080D20000800000000D1
:100090000000000000000000000000000D2000082B
:1000A0000D2000080D2000080D2000080D2000087C
:1000B0000D2000080D2000080D2000080D2000086C
:1000C0000D2000080D2000080D2000080D2000085C
:1000D0000D2000084513000861130008000000000F
:1000E0000D2000080D2000080D2000080000000071
:1000F0000000000000000000000000000D200008CB
:10010000000000000D2000080D2000080D20000850
:1001100000000000000000000000000000000000DF
:100120000D2000080D2000080D2000080D200008FB
:100130000D2000080000000000000000000000008A
:100140000000000000000000000000000D2000087A
:100150000D2000080D2000080D2000087D13000868
:100160000D2000080D200008000000000000000025
:10017000000000000000000000000000000000007F
:10018000000000000000000000000000000000006F
:040190000D20000836
:1001980010B5054C237833B9044B13B10448AFF3B9
:1001A80000800123237010BD000000200000000023
:1001B8005820000808B5034B1BB103490348AFF3A7
:1001C800008008BD0000000004000020582000083E
:1001D80081F0004102E000BF83F0004330B54FEAF0
:1001E80041044FEA430594EA050F08BF90EA020F5D
:1001F8001FBF54EA000C55EA020C7FEA645C7FEAF0
:10020800655C00F0E2804FEA5454D4EB5555B8BF12
:100218006D420CDD2C4480EA020281EA030382EA83
:10022800000083EA010180EA020281EA0303362D15
:1002380088BF30BD11F0004F4FEA01314FF4801CE8
:100248004CEA113102D0404261EB410113F0004FFA
:100258004FEA03334CEA133302D0524263EB4303B1
:1002680094EA050F00F0A780A4F10104D5F1200E4F
:100278000DDB02FA0EFC22FA05F2801841F10001AA
:1002880003FA0EF2801843FA05F359410EE0A5F17E
:1002980020050EF1200E012A03FA0EFC28BF4CF0AF
:1002A800020C43FA05F3C01851EBE37101F0004565
:1002B80007D54FF0000EDCF1000C7EEB00006EEB72
:1002C8000101B1F5801F1BD3B1F5001F0CD34908FC
:1002D8005FEA30004FEA3C0C04F101044FEA445253
:1002E80012F5800F80F09A80BCF1004F08BF5FEADA
:1002F800500C50F1000041EB045141EA050130BDBA
:100308005FEA4C0C404141EB0101013C28BFB1F5CB
:10031800801FE9D291F0000F04BF01460020B1FA16
:1003280081F308BF2033A3F10B03B3F120020CDAE9
:100338000C3208DD02F1140CC2F10C0201FA0CF0C7
:1003480021FA02F10CE002F11402D8BFC2F1200C2C
:1003580001FA02F120FA0CFCDCBF41EA0C019040E2
:10036800E41AA2BF01EB0451294330BD6FEA04042B
:100378001F3C1CDA0C340EDC04F11404C4F1200216
:1003880020FA04F001FA02F340EA030021FA04F328
:1003980045EA030130BDC4F10C04C4F1200220FA7F
:1003A80002F001FA04F340EA0300294630BD21FABD
:1003B80004F0294630BD94F0000F83F4801306BF83
:1003C80081F480110134013D4EE77FEA645C18BF77
:1003D8007FEA655C29D094EA050F08BF90EA020F0E
:1003E80005D054EA000C04BF1946104630BD91EA06
:1003F800030F1EBF0021002030BD5FEA545C05D109
:100408004000494128BF41F0004130BD14F5800447
:100418003CBF01F5801130BD01F0004545F0FE41BB
:1004280041F470014FF0000030BD7FEA645C1ABFF0
:10043800194610467FEA655C1CBF0B46024650EA27
:10044800013406BF52EA033591EA030F41F4002153
:1004580030BD00BF90F0000F04BF0021704730B5D9
:100468004FF4806404F132044FF000054FF00001AE
:1004780050E700BF90F0000F04BF0021704730B56F
:100488004FF4806404F1320410F0004548BF404244
:100498004FF000013EE700BF42004FEAE2014FEA99
:1004A80031014FEA02701FBF12F07F4393F07F4F74
:1004B80081F06051704732F07F4208BF704793F077
:1004C8007F4F04BF41F40021704730B54FF460748A
:1004D80001F0004521F000411CE700BF50EA01028D
:1004E80008BF704730B54FF000050AE050EA010236
:1004F80008BF704730B511F0004502D5404261EBA6
:1005080041014FF4806404F132045FEA915C3FF4E6
:10051800D8AE4FF003025FEADC0C18BF03325FEA83
:10052800DC0C18BF033202EBDC02C2F1200300FA34
:1005380003FC20FA02F001FA03FE40EA0E0021FA59
:1005480002F11444BDE600BF70B54FF0FF0C4CF447
:10055800E06C1CEA11541DBF1CEA135594EA0C0FF9
:1005680095EA0C0F00F0DEF82C4481EA030621EA34
:100578004C5123EA4C5350EA013518BF52EA03356F
:1005880041F4801143F4801338D0A0FB02CE4FF021
:100598000005E1FB02E506F00042E0FB03E54FF051
:1005A8000006E1FB03569CF0000F18BF4EF0010E49
:1005B800A4F1FF04B6F5007F64F5407404D25FEA45
:1005C8004E0E6D4146EB060642EAC62141EA5551F8
:1005D8004FEAC52040EA5E504FEACE2EB4F1FD0C3A
:1005E80088BFBCF5E06F1ED8BEF1004F08BF5FEAB8
:1005F800500E50F1000041EB045170BD06F000466A
:1006080046EA010140EA020081EA0301B4EB5C0416
:10061800C2BFD4EB0C0541EA045170BD41F480110E
:100628004FF0000E013C00F3AB8014F1360FDEBF33
:10063800002001F0004170BDC4F10004203C35DA0F
:100648000C341BDC04F11404C4F1200500FA05F392
:1006580020FA04F001FA05F240EA020001F0004233
:1006680021F0004110EBD37021FA04F642EB0601A9
:100678005EEA430E08BF20EAD37070BDC4F10C04D3
:10068800C4F1200500FA04F320FA05F001FA04F297
:1006980040EA020001F0004110EBD37041F1000183
:1006A8005EEA430E08BF20EAD37070BDC4F120058E
:1006B80000FA05F24EEA020E20FA04F301FA05F2F6
:1006C80043EA020321FA04F001F0004121FA04F29E
:1006D80020EA020000EBD3705EEA430E08BF20EA6E
:1006E800D37070BD94F0000F0FD101F000464000A8
:1006F80041EB010111F4801F08BF013CF7D041EA2A
:10070800060195F0000F18BF704703F0004652002D
:1007180043EB030313F4801F08BF013DF7D043EAFE
:100728000603704794EA0C0F0CEA135518BF95EAB4
:100738000C0F0CD050EA410618BF52EA4306D1D13B
:1007480081EA030101F000414FF0000070BD50EA5A
:10075800410606BF1046194652EA430619D094EAE4
:100768000C0F02D150EA013613D195EA0C0F05D1CE
:1007780052EA03361CBF104619460AD181EA030122
:1007880001F0004141F0FE4141F470014FF00000DA
:1007980070BD41F0FE4141F4780170BD70B54FF075
:1007A800FF0C4CF4E06C1CEA11541DBF1CEA1355F5
:1007B80094EA0C0F95EA0C0F00F0A7F8A4EB0504D7
:1007C80081EA030E52EA03354FEA013100F08880CE
:1007D8004FEA03334FF0805545EA131343EA126397
:1007E8004FEA022245EA111545EA10654FEA00264C
:1007F8000EF000419D4208BF964244F1FD0404F505
:10080800407402D25B084FEA3202B61A65EB030560
:100818005B084FEA32024FF480104FF4002CB6EB1D
:10082800020E75EB030E22BFB61A754640EA0C009D
:100838005B084FEA3202B6EB020E75EB030E22BFDD
:10084800B61A754640EA5C005B084FEA3202B6EB1E
:10085800020E75EB030E22BFB61A754640EA9C00DD
:100868005B084FEA3202B6EB020E75EB030E22BFAD
:10087800B61A754640EADC0055EA060E18D04FEA6B
:10088800051545EA16754FEA06164FEAC30343EA0B
:1008980052734FEAC2025FEA1C1CC0D111F4801FD8
:1008A8000BD141EA00014FF000004FF0004CB6E7D1
:1008B80011F4801F04BF01430020B4F1FD0C88BF70
:1008C800BCF5E06F3FF6AFAEB5EB030C04BFB6EB7B
:1008D800020C5FEA500C50F1000041EB045170BD6E
:1008E8000EF0004E4EEA113114EB5C04C2BFD4EB9B
:1008F8000C0541EA045170BD41F480114FF0000E1F
:10090800013C90E645EA060E8DE60CEA135594EA9A
:100918000C0F08BF95EA0C0F3FF43BAF94EA0C0F9D
:100928000AD150EA01347FF434AF95EA0C0F7FF412
:1009380025AF104619462CE795EA0C0F06D152EA66
:1009480003353FF4FDAE1046194622E750EA41064A
:1009580018BF52EA43067FF4C5AE50EA41047FF45B
:100968000DAF52EA43057FF4EBAE12E74A0011D20D
:1009780012F5001211D20DD56FF47873B3EB6252F1
:100988000ED44FEAC12343F0004343EA505323FAFD
:1009980002F070474FF00000704750EA013002D172
:1009A8004FF0FF3070474FF00000704780B500AF40
:1009B80000F0A6F8054B1B6923F44073034A43F47F
:1009C8008073136100F08CF800BF80BD003C0240CA
:1009D80080B582B000AF0346FB7100BF1B4BDB68DC
:1009E80003F48033002BF9D100F08AF8FB79DB009F
:1009F8001946164B1B6923F07803144A0B431361FD
:100A0800124B1B69114A43F0020313610F4B1B6918
:100A18000E4A43F48033136100BF0C4BDB6803F4C8
:100A28008033002BF9D1094BDB68084A43F00103F6
:100A3800D360064B1B69054A23F00203136100F0DB
:100A48004FF800BF0837BD4680BD00BF003C0240DC
:100A580080B586B000AFF860B9601346FB8000BF70
:100A68001E4BDB6803F48033002BF9D100F048F803
:100A78001A4B1B69194A43F0010313610023FB82D7
:100A88000023FB8219E0FB8A5B00BA681A44FB6802
:100A980012881A80FB680233FB6000BF0F4BDB68CB
:100AA80003F48033002BF9D10C4BDB680B4A43F07D
:100AB8000103D360FB8A0133FB82FA8AFB889A42DE
:100AC800E1D3064B1B69054A23F00103136100F0CB
:100AD80007F800BF1837BD4680BD00BF003C024084
:100AE80080B400AF054B1B69044A43F0004313610F
:100AF80000BFBD465DF8047B704700BF003C024064
:100B080080B400AF054B064A5A60044B054A5A6048
:100B180000BFBD465DF8047B704700BF003C024043
:100B280023016745AB89EFCD80B483B000AF78600F
:100B38000B46FB701346BB70BB78032B13D8BA78EF
:100B4800FB785B0002FA03F318467B681A68FB78A7
:100B58005B00032101FA03F3DB43134040EA03027D
:100B68007B681A6000E000BF0C37BD465DF8047B67
:100B7800704780B483B000AF78600B46FB701346B3
:100B8800BB70BB78012B11D8BA78FB7802FA03F353
:100B980018467B685A68FB78012101FA03F3DB43A6
:100BA800134040EA03027B685A6000E000BF0C373C
:100BB800BD465DF8047B704780B483B000AF7860B1
:100BC8000B46FB701346BB70BB78032B13D8BA785F
:100BD800FB785B0002FA03F318467B689A68FB7897
:100BE8005B00032101FA03F3DB43134040EA0302ED
:100BF8007B689A6000E000BF0C37BD465DF8047B57
:100C0800704780B483B000AF78600B46FB70134622
:100C1800BB70FB78072B13D8BA78FB789B0002FAD5
:100C280003F318467B681A6AFB789B000F2101FAC8
:100C380003F3DB43134040EA03027B681A6214E0C3
:100C4800BA78FB78083B9B0002FA03F318467B68E6
:100C58005A6AFB78083B9B000F2101FA03F3DB4338
:100C6800134040EA03027B685A6200BF0C37BD4656
:100C78005DF8047B704780B483B000AF78600B46A2
:100C8800FB701346BB70BB78012B09D17B685B698D
:100C9800FA78012101FA02F21A437B685A610CE0E2
:100CA800BB78002B09D17B685B69FA78012101FACE
:100CB80002F2D2431A407B685A6100BF0C37BD4626
:100CC8005DF8047B7047000080B400AF194B1B68C7
:100CD800184A43F001031360164B1B6823F0F8030E
:100CE800144A43F080031360134B1B68124A23F025
:100CF8000303136000BF0F4B1B6803F00203002BB4
:100D0800F9D00D4B1B6823F0F0030B4A43F0800326
:100D18001360094B1B68084A23F4E0531360064B21
:100D28001B68054A23F46043136000BFBD465DF8A5
:100D3800047B7047003802400838024080B483B012
:100D480000AF03460A46FB711346BB71FB79072BBC
:100D58006AD801A252F823F0810D0008970D000807
:100D6800AD0D0008C30D0008D90D0008EF0D0008EF
:100D7800050E00081B0E00082F4B1B68BA790121CD
:100D880001FA02F211462C4A0B4313604DE02B4B3B
:100D98001B68BA79012101FA02F21146274A0B436E
:100DA800136042E0264B1B68BA79012101FA02F26E
:100DB8001146234A0B43136037E0224B1B68BA796C
:100DC800012101FA02F211461E4A0B4313602CE07E
:100DD8001D4B1B68BA79012101FA02F211461A4A21
:100DE8000B43136021E0194B1B68BA79012101FA02
:100DF80002F21146154A0B43136016E0144B1B68A8
:100E0800BA79012101FA02F21146114A0B43136023
:100E18000BE0104B1B68BA79012101FA02F2114666
:100E28000C4A0B43136000E000BF00BF0C37BD46FF
:100E38005DF8047B704700BF303802403438024008
:100E4800403802404438024050380240543802408A
:100E5800603802406438024080B400AF0B4B1B6816
:100E68000A4A23F001031360084B1B68074A23F062
:100E780002031360054B1B68044A23F00403136044
:100E880000BFBD465DF8047B704700BF10E000E07E
:100E980080B483B000AF7860104A7B681360104B51
:100EA8001B680F4A43F00103136000BF0C4B1B681B
:100EB80003F48033002BF9D0094B1B68084A23F050
:100EC80001031360054B00221A60064B00221A60CA
:100ED80000BF0C37BD465DF8047B704714E000E0A6
:100EE80010E000E018E000E080B500AF104B1B7880
:100EF800002B11D10F4B1B680E4A23F0020313601D
:100F08000C4B1B680B4A23F0010313600A4B0022A9
:100F18001A600A4B00221A60094B1B68002B02D08A
:100F2800074B1B689847034B1B6800BF80BD00BF79
:100F38002000002010E000E014E000E018E000E0ED
:100F48001C0000200000000090B585B000AFF860DC
:100F5800B9607A60BB689B7A002B02D0012B72D0F3
:100F6800E1E0BB681B681846FFF774FA4FF000020F
:100F78008F4BFFF7E9FA02460B468BA1D1E9000136
:100F8800FFF70CFC02460B4610461946FFF7EEFC2D
:100F98000346884AA2FB03235B091C01BB681B6844
:100FA8001846FFF757FA4FF00002814BFFF7CCFACB
:100FB80002460B467CA1D1E90001FFF7EFFB024690
:100FC8000B4610461946FFF7D1FC0246794BA3FBA6
:100FD80002135B09642101FB03F3D31A1B013233AB
:100FE800744AA2FB03235B0903F0F0031C44BB68AB
:100FF8001B681846FFF72EFA4FF000026C4BFFF7FC
:10100800A3FA02460B4668A1D1E90001FFF7C6FB27
:1010180002460B4610461946FFF7A8FC0246654BE8
:10102800A3FB02135B09642101FB03F3D31A1B0121
:101038003233604AA2FB03235B0903F00F03E21873
:10104800FB689A606FE0BB681B681846FFF702FAF6
:1010580002460B46FFF7C2F802460B4652A1D1E9F9
:101068000001FFF79BFB02460B4610461946FFF7A7
:101078007DFC03464F4AA2FB03235B091C01BB68A6
:101088001B681846FFF7E6F902460B46FFF7A6F875
:1010980002460B4644A1D1E90001FFF77FFB024657
:1010A8000B4610461946FFF761FC0246414BA3FB6D
:1010B80002135B09642101FB03F3D31ADB0032330B
:1010C8003C4AA2FB03235B095B0003F4F8731C444E
:1010D800BB681B681846FFF7BDF902460B46FFF7C9
:1010E8007DF802460B4630A1D1E90001FFF756FB17
:1010F80002460B4610461946FFF738FC02462D4BB0
:10110800A3FB02135B09642101FB03F3D31ADB0081
:101118003233284AA2FB03235B0903F00703E218D2
:10112800FB689A6000BFBB689B7ADA03BB685B7A8E
:101138005B031A43BB681B791B031A43BB689B7983
:101148009B021A43BB68DB795B0213431A46FB68B0
:10115800DA60BB681B7A9B001A46FB68DB6823F0E1
:101168000C031A43FB68DA60BB685B791A037B6877
:101178001B78DB021A437B689B785B021A437B6807
:101188005B789B021A437B68DB781B0213431A4681
:10119800FB681A61FB6800221A6000BF1437BD465D
:1011A80090BD00BFAFF300800000000084D7A741C6
:1011B800000010401F85EB5180B483B000AF786009
:1011C8007B68DB6843F400527B68DA6000BF0C3749
:1011D800BD465DF8047B704780B483B000AF78608B
:1011E8000B46FB7000BF7B681B6803F08003002B75
:1011F800F9D0FA787B685A6000BF7B681B6803F0F7
:101208004003002BF9D07B681B6823F040027B6801
:101218001A6000BF0C37BD465DF8047B704780B587
:1012280084B000AF786039600023FB730AE0FB7B71
:101238003A6813441B7819467868FFF7CDFFFB7BA3
:101248000133FB73FB7B3A6813441B78002BEED108
:1012580000BF00BF1037BD4680BD000080B485B018
:1012680000AF786039600023FB6002E0FB6801335F
:10127800FB607B681B6803F02003002B03D1FB682D
:101288000A4A9342F2D9FB68094A934201D10023E2
:1012980005E07B685B68DAB23B681A700123184680
:1012A8001437BD465DF8047B704700BF9F86010078
:1012B800A086010080B584B000AF78603960002353
:1012C800FB730023BB7307E0FB7B3A681344BA7BCC
:1012D8001A70FB7B0133FB7307F10E03194678681C
:1012E800FFF7BCFF0346002BEED1FB7B3A681344A3
:1012F80000221A7000BF1037BD4680BD80B483B08D
:1013080000AF78600B46FB70FB78002B08D0012BF0
:101318000DD17B68DB6843F020027B68DA6007E068
:101328007B68DB6823F020027B68DA6000E000BF9E
:1013380000BF0C37BD465DF8047B704780B500AF31
:10134800034B00221A60034B1B68984700BF80BDFF
:10135800001001402400002080B500AF034B00229C
:101368001A60034B1B68984700BF80BD00440040CB
:101378002800002080B500AF034B00221A60034B01
:101388001B68984700BF80BD001401402C00002056
:1013980080B483B000AF0346FB71FB792F2B06D9CD
:1013A800FB79392B03D8FB79303BDBB20AE0FB79B8
:1013B800402B06D9FB79462B03D8FB79373BDBB2A8
:1013C80000E0002318460C37BD465DF8047B7047E3
:1013D8002DE9F04786B000AF78607B6808331B784A
:1013E800342B26D17B6809331B781846FFF7D0FFCA
:1013F80003461B071C467B680A331B781846FFF711
:10140800C7FF03461B061C437B680B331B78184633
:10141800FFF7BEFF03461B051C437B680C331B7894
:101428001846FFF7B5FF03461B0423436B4A1360B6
:10143800CEE07B6808331B78302B40F0C9806B46C0
:101448009A467B6801331B781846FFF7A1FF0346CD
:101458001B01DEB27B6802331B781846FFF798FF42
:1014680003463344BB757B6803331B781846FFF784
:101478008FFF03469BB21B039EB27B6804331B7825
:101488001846FFF785FF03469BB21B029BB2334306
:101498009EB27B6805331B781846FFF779FF034631
:1014A8009BB21B019BB233439EB27B6806331B7809
:1014B8001846FFF76DFF03469BB23343BB82BA8AD7
:1014C800464B1B6813443B610023FB75BB7D5B08DF
:1014D800DBB219464B1EFB600A460023904699462C
:1014E8004FF000024FF000034FEA091343EA187364
:1014F8004FEA08120A46002314461D464FF0000220
:101508004FF000032B0143EA147322010B465B00E2
:101518000733DB08DB00ADEB030D6B4601335B08DB
:101528005B00BB600023FB7542E0FB7D9B00093339
:101538007A6813441B781846FFF72AFF03469BB2C4
:101548001B019CB2FB7D9B000A337A6813441B780D
:101558001846FFF71DFF03469BB223439BB21CB2FC
:10156800FB7D9B000B337A6813441B781846FFF702
:101578000FFF03469BB21B039BB21BB223431CB253
:10158800FB7D9B000C337A6813441B781846FFF7E1
:10159800FFFE03469BB21B029BB21BB223431BB246
:1015A800FA7D99B2BB6823F81210FB7D0133FB75F5
:1015B800BB7D5B08DBB2FA7D9A42B6D3BB7D5B0884
:1015C800DBB29BB21A46B9683869FFF741FAD546CB
:1015D80000BF1837BD46BDE8F08700BF30000020C7
:1015E80090B583B000AF78607B6801331B781846EC
:1015F800FFF7CEFE03461B01DCB27B6802331B7883
:101608001846FFF7C5FE03462344DBB218460C37DD
:10161800BD4690BD80B584B000AF0A4B1B68FB6027
:10162800FB6883F30888084B064A1A60074B1B6857
:10163800BB60BB687B607B68984700BF1037BD46BE
:1016480080BD00BF0040000808ED00E0044000082D
:1016580080B500AF012200210B48FFF70CFB4FF4C7
:101668007A70FFF715FC002200210748FFF703FBFB
:101678004FF47A70FFF70CFC012200210248FFF7B3
:10168800FAFA00BF80BD00BF0000024080B500AF7D
:10169800FFF7DEFF454B00221A70454B00221A70F7
:1016A80044494548FFF7BBFD30E044494248FFF74D
:1016B800D5FD424B1B784F2B0BD140493E48FFF7D5
:1016C800CDFD3E4B1B784B2B1AD1384B01221A709B
:1016D80020E03A4B1B78522B0BD138493648FFF79C
:1016E800BDFD364B1B78522B0AD1304B00221A70A5
:1016F80010E0324B1B78622B02D1FFF7A9FF09E0FB
:101708002B4B1B780133DAB2294B1A70284B1B7804
:101718000E2BCAD9254B1B78002BBBD0234B00229C
:101728001A70234B00221A7025492348FFF777FDCA
:1017380030E022492048FFF791FD204B1B784F2BC2
:101748000BD11E491C48FFF789FD1C4B1B784B2BFE
:101758001AD1164B01221A7020E0184B1B78522B15
:101768000BD116491448FFF779FD144B1B78522BFF
:101778000AD10E4B00221A7010E0104B1B78622B16
:1017880002D1FFF765FF09E0094B1B780133DAB294
:10179800074B1A70064B1B780E2BCAD9034B1B78C4
:1017A800002BBBD000BF00BF80BD00BFA800002039
:1017B800AA0000207020000800100140A7000020A7
:1017C8007820000880B586B000AFFFF77DFA0021C9
:1017D8000020FFF7B3FA0F210420FFF7AFFA042126
:1017E8000320FFF7ABFA012200219948FFF79CF983
:1017F800002200219648FFF7DFF9002200219448D3
:10180800FFF7B7F9012200219148FFF734FA0222C5
:1018180009218F48FFF788F902220A218C48FFF72F
:1018280083F9072209218A48FFF7EBF907220A21E1
:101838008748FFF7E6F9874A07F1080307CA83E8EC
:10184800070000237B603A1D07F108031946824808
:10185800FFF77AFB8048FFF7AFFC00217E48FFF7CF
:101868004DFDFFF7F9FAFFF7A1F8FFF70FFF7B4BE4
:1018780000221A707A4B00221A707A497648FFF7CC
:10188800CEFC38E078497448FFF7E8FC764B1B78C3
:10189800622B02D1FFF7FAFE31E0734B1B784F2B16
:1018A80013D171496C48FFF7D9FC6F4B1B784B2B50
:1018B80003D16A4B01221A7021E06B4B1B78522B23
:1018C80013D1664B00221A7019E0674B1B78592B0D
:1018D8000BD165496048FFF7C1FC634B1B78202B8F
:1018E80003D15E4B01221A7009E05D4B1B7801336E
:1018F800DAB25B4B1A705A4B1B780E2BC2D9574B76
:101908001B78002BB3D0554B00221A70544B002281
:101918001A7056495048FFF782FC28E052494E4851
:10192800FFF79CFC504B1B78762B03D14B4B0222C4
:101938001A7020E04C4B1B784F2B0BD14A49464874
:10194800FFF78CFC484B1B784B2B0AD1434B0122E9
:101958001A7010E0444B1B78622B02D1FFF796FEF9
:1019680009E03F4B1B780133DAB23D4B1A703C4B10
:101978001B780E2BD2D9394B1B78002BC3D0374B91
:101988001B78022B44D0354B00221A70344B0022AE
:101998001A7037493048FFF742FC35E032492E4883
:1019A800FFF75CFC304B1B782B2B27D12E492A489C
:1019B800FFF754FC2C492848FFF750FC2A492648D1
:1019C800FFF74CFC28492448FFF748FC26492248E1
:1019D800FFF744FC24492048FFF740FC22491E48F1
:1019E800FFF73CFC204B1B784E2B03D01E4B1B787B
:1019F8004F2B03D1194B01221A7009E0184B1B78A1
:101A08000133DAB2164B1A70154B1B780E2BC5D959
:101A1800124B1B78002B3FF42AAF104B1B78022B7C
:101A28003FF425AF104B1B784F2B02D1FFF7F2FD87
:101A3800B7E20D4B1B784E2B40F0B3820123FB75A8
:101A48003023BB7530237B750123FB7519E000BF7C
:101A580000000240A021000800100140A80000205A
:101A6800AA00002088200008A7000020B020000855
:101A7800C0200008FB7D1846FEF7AAFFFB7D013356
:101A8800FB75FB7D032BF5D93023FB75924B0022A8
:101A98001A70924B00221A7091499248FFF7BFFBC7
:101AA80038E091498F48FFF7D9FB8F4B1B78622BA1
:101AB80002D1FFF7EBFD31E08B4B1B784F2B13D195
:101AC80089498848FFF7CAFB874B1B784B2B03D102
:101AD800814B01221A7021E0834B1B78522B13D1C2
:101AE8007D4B00221A7019E07F4B1B78592B0BD1C4
:101AF8007D497C48FFF7B2FB7B4B1B78202B03D139
:101B0800754B01221A7009E0744B1B780133DAB265
:101B1800724B1A70714B1B780E2BC2D96E4B1B7807
:101B2800002BB3D06C4B00221A706C4B00221A7039
:101B38007B7D302B04D06D496A48FFF770FB35E098
:101B4800BB7D302B04D06A496648FFF768FB2DE05F
:101B580068496448FFF763FB28E063496148FFF779
:101B68007DFB614B1B78762B03D15B4B02221A70ED
:101B780020E05D4B1B784F2B0BD15B495948FFF791
:101B88006DFB594B1B784B2B0AD1534B01221A7012
:101B980010E0554B1B78622B02D1FFF777FD09E067
:101BA8004E4B1B780133DAB24C4B1A704B4B1B78F7
:101BB8000E2BD2D9484B1B78002BB3D0464B1B7841
:101BC800022B31D04C494748FFF729FB7B7D302B4E
:101BD8000FD07B7D19464348FFF7FEFABB7D1946B7
:101BE8004048FFF7F9FAFB7D19463E48FFF7F4FA3B
:101BF80012E0BB7D302B0AD0BB7D19463948FFF770
:101C0800EBFAFB7D19463748FFF7E6FA04E0FB7D5F
:101C180019463448FFF7E0FA38493248FFF7FFFA27
:101C280037493048FFF746FB354B5B7D3A2B04D0EC
:101C3800334B9B7D3A2B7FF429AF3248FFF7C8FB23
:101C48003048FFF7CDFC03461A462F4B1A702E4B2F
:101C58001B785B0023332A4A13441846FFF7B8FB66
:101C6800274B00221A75264B00225A751A4B002260
:101C78001A701A4B00221A7024491A48FFF7CFFA33
:101C88004CE019491748FFF7E9FA174B1B784F2B17
:101C98000BD115491348FFF7E1FA134B1B784B2B6F
:101CA80036D10D4B01221A703CE00F4B1B78452BA7
:101CB8000BD10D490B48FFF7D1FA0B4B1B78522B70
:101CC80026D1054B01221A702CE0074B1B78622B9A
:101CD8001ED1FFF7DBFC25E0A8000020AA000020A9
:101CE8008820000800100140A7000020F420000808
:101CF80004210008142100082421000858210008A4
:101D0800340000204A000020A90000205C210008BF
:101D1800914B1B780133DAB28F4B1A708E4B1B78BC
:101D28000E2BAED98D4B1B78002B9FD0FB7D023339
:101D3800FB75FB7D392B0ED9FB7D0A3BFB75BB7D03
:101D48000133BB75BB7D392B05D9BB7D0A3BBB7500
:101D58007B7D01337B75824B9B7F312B08D0814B78
:101D68001B785B002B337E4AD35C312B7FF48EAE1D
:101D78007A4B00221A70784B00221A707A497B48F5
:101D8800FFF74DFA30E07A497848FFF767FA784B61
:101D98001B78622B02D1FFF779FC29E0744B1B7882
:101DA8004F2B0BD172497148FFF758FA704B1B78CB
:101DB8004B2B13D1694B01221A7019E06C4B1B781D
:101DC800592B0BD16A496948FFF748FA684B1B78C9
:101DD800202B03D1614B01221A7009E05E4B1B785E
:101DE8000133DAB25C4B1A705B4B1B780E2BCAD9E5
:101DF8005A4B1B78002BBBD0584B00221A70564BFD
:101E080000221A705B495948FFF709FA28E0584937
:101E18005648FFF723FA564B1B78762B03D14F4BC6
:101E280002221A7020E0524B1B784F2B0BD15049DD
:101E38004E48FFF713FA4E4B1B784B2B0AD1474BF2
:101E480001221A7010E04A4B1B78622B02D1FFF76F
:101E58001DFC09E0404B1B780133DAB23E4B1A7087
:101E68003D4B1B780E2BD2D93C4B1B78002BC3D093
:101E78003A4B1B78022B2FD0384B00221A70364B66
:101E880000221A703C493948FFF7C9F920E038495F
:101E98003648FFF7E3F9364B1B784F2B0BD1344903
:101EA8003248FFF7DBF9324B1B784B2B0AD12B4B0F
:101EB80001221A7010E02E4B1B78622B02D1FFF71B
:101EC800E5FB09E0244B1B780133DAB2224B1A7088
:101ED800214B1B780E2BDAD9204B1B78002B3FF4B3
:101EE80047AF1E4B1B78022B3FF442AF1B4B00221F
:101EF8001A70194B00221A7020491C48FFF78FF9F5
:101F080044E01B491948FFF7A9F9194B1B784F2BD7
:101F18000BD117491548FFF7A1F9154B1B784B2B27
:101F28002ED10E4B01221A7034E0114B1B78452B31
:101F38000BD10F490D48FFF791F90D4B1B78522B28
:101F48001ED1064B01221A7024E0094B1B78622B24
:101F580016D1FFF79BFB1DE0AA000020A800002077
:101F680034000020A900002088200008001001404B
:101F7800A7000020B02000086C2100085C210008A0
:101F88000A4B1B780133DAB2084B1A70074B1B78DF
:101F98000E2BB6D9064B1B78002BA7D0FFF73AFBC0
:101FA80074E5002318461837BD4680BDAA000020F6
:101FB800A80000200D488546AFF300800C480D4965
:101FC8000D4A002302E0D458C4500433C4188C428C
:101FD800F9D30A4A0A4C002301E013600432A242F2
:101FE800FBD300F011F8FFF7EDFBFEE7000001203E
:101FF8000000002000000020B4210008000000209C
:10200800AC000020FEE7000070B50D4D0D4C641BC0
:10201800A4100026A64209D10B4D0C4C00F018F86C
:10202800641BA4100026A64205D170BD55F8043BD8
:1020380098470136EEE755F8043B98470136F2E732
:10204800AC210008AC210008AC210008B021000830
:10205800F8B500BFF8BC08BC9E467047F8B500BF8D
:08206800F8BC08BC9E4670475D
:10207000415445300D0A000041542B43574D4F4405
:10208000453D310D0A00000041542B434950535443
:102090004152543D22544350222C2236392E31399C
:1020A000372E3134332E3134222C38300D0A0000D3
:1020B00041542B43495053454E443D35300D0A00A1
:1020C00047455420687474703A2F2F736F626868A4
:1020D00068682E667265657661722E636F6D2F5229
:1020E0006561646F724E6F7446696C652E747874A6
:1020F0000D0A000041542B43495053454E443D3591
:10210000330D0A0041542B43495053454E443D354D
:10211000320D0A0041542B43495053454E443D353E
:10212000310D0A0047455420687474703A2F2F739C
:102130006F62686868682E667265657661722E6384
:102140006F6D2F6765746C696E652E7068703F6C7B
:10215000696E653D000000000D0A000041542B43EC
:102160004950434C4F53450D0A0000004745542049
:10217000687474703A2F2F736F62686868682E668F
:102180007265657661722E636F6D2F6765746C6919
:102190006E652E7068703F656E640D0A0000000069
:0C21A00000C2010000000000030000006D
:0421AC00BD01000869
:0421B0009901000889
:0400000508001FBD13
:00000001FF
